:100000000C94B40C0C94F50C0C944C0D0C94A30DA6
:100010000C94FA0D0C94D20C0C94D20C0C94D20CBF
:100020000C94D20C0C94D20C0C94D20C0C94D20CD8
:100030000C94D20C0C94D20C0C94D20C0C94D20CC8
:100040000C94D20C0C94D20C0C94D20C0C94D20CB8
:100050000C94D20C0C94D20C0C94D20C0C94D20CA8
:100060000C94D20C0C94D20C0C94D20C0C94D20C98
:100070000C94D20C0C94D20C0C94D20C0C94D20C88
:100080000C94D20C0C94D20C0C94D20C00000000F6
:100090000000000000000000000000000000070059
:1000A000000000000000000004000000000000004C
:1000B00000005C0000000000000000007FF0000075
:1000C000000000000001FEE0000000000000000150
:1000D000FC200000000000000003F0800000000091
:1000E0000000000F8000000000000000003F000042
:1000F000000000000000007C000000000000000084
:1001000001F0000000000000000007E00000000017
:10011000000000001F8000000000000000003E0002
:100120000000000000000001FC00000000000000D2
:100130000003F000000000000000000FE0000000DD
:1001400000000001003F800000000000001800FED9
:10015000000000000000001C03F800000000000088
:10016000001C0FF0000000000000003C1FC0000059
:1001700000000000003F7F0000000000000000FFC2
:10018000DC0000000000000003FDF00000000000A3
:1001900000007FEFF00000000000003FFFFF800044
:1001A0000000000003FFFFFF60000000000003FFED
:1001B000FFFFF0400000000003FFFFFFFF80000092
:1001C000000007FFFFFFFF80000000000FFFFFFFA0
:1001D000C000000000000FFFFFFF00000000000053
:1001E0000FFFFFFE0000000000001FFFFDFE0000EB
:1001F0000000000020007FFC000000000000000064
:100200003FFC00000000000000001FF000000000A4
:10021000000000003FF000000000000000003FE090
:1002200000000000000000003FF00000000000009F
:1002300000007FC000000000000000007C00000003
:10024000000000000000F0000000000000000001BD
:10025000000000000000000000010000000000009D
:10026000000000000000000000000000000000008E
:10027000000000000000000000000000000000007E
:1002800000000000000000000000FC000000000072
:1002900000000000000000000033C000000000006B
:1002A0000000000000000000000B00000000000043
:1002B0000000000000000000018F0040000000006E
:1002C0000000000000000000087C41C000000000A9
:1002D000000000000000000007FFFFC00000000059
:1002E0000000000000000000067F13000000000076
:1002F000000000000000000007FF010000000000F7
:10030000000000000000000007F0200000000000D6
:1003100000000000000000003FFC000000000000A2
:100320000000000000000000FF00000000000000CE
:100330000000000000000003FE00000000000000BC
:10034000000000000000000FF800000000000000A6
:10035000000000000000007FE0000000000000003E
:1003600000000000000000FF00000000000000008E
:1003700000000000000007FE000000000000000078
:100380000000000000001FF000000000000000005E
:100390000000000000003FE000000000000000003E
:1003A000000000000001FF800000000000000000CD
:1003B00000000000000FFC00000000000000000032
:1003C00000000000003FF8000000000000000000F6
:1003D0000000000000FFE00000000000000000003E
:1003E0000000000003FF000000000000000000000B
:1003F000000020000FFE00000000000000000000D0
:10040000000EC0007FF800000000000000000000A7
:1004100000168001FFE00000000000000000000066
:1004200000170007FF80000000000000000000002F
:10043000000F003FFC000000000000000000000072
:10044000003E007FF00000000000000000000000FF
:10045000007FF9FFC0000000000000000000000065
:1004600000BFE77F00000000000000000000000067
:1004700001FFBFEC000000000000000000000000D1
:1004800007FEFFE000000000000000000000000088
:100490003FF7BFC000000000000000000000003F68
:1004A000FF63FE8000000000000000000000FFFF6E
:1004B000FEFFFC000000000000000000003FFFFF06
:1004C000FFFFE5000000000000000000003FFFFF0C
:1004D000FFFFEB801800000000000000007FFFFF1E
:1004E000FFFFFFE1A000000000000000007FFFFF11
:1004F000DFFF7FFFC00000000000000000FFFFF7EB
:10050000FFFFFFFF400000000000000000FFFF5F52
:10051000FFFFFFDC000000000000000001FFFFBF44
:10052000FFBFFE00000000000000000002FFFFFF10
:10053000F7FFE800000000000000000003FFFFFFDD
:10054000FFFFE000000000000000000007FFFFFFC9
:10055000C7FFC00000000000000000000BFFFFFF0D
:10056000F7FF800000000000000000001A00003FBC
:10057000FFFF800000000000000000000000000FEE
:10058000FFFF000000000000000000000000000568
:10059000FFFA00000000000000000000000000055D
:1005A000FFF800000000000000000000000000054F
:1005B000FFF0000000000000000000000000000B41
:1005C000EFF4000000000000000000000000000B3D
:1005D000FFF4000000000000000000000000000622
:1005E000FFFC0000000000000000000000000017F9
:1005F000FFC0000000000000000000000000001F1D
:10060000FC00000000000000000000000000002FBF
:10061000E000000000000000000000000000007E7C
:10062000000000000000000000000000000000507A
:10063000000000000000000000000000000000C0FA
:1006400000000000000000000000000000000000AA
:10065000000000000000000000000000000000009A
:10066000000000000000000000000000000000008A
:100670000000000000000000001FFFFFF800000065
:100680000000001FFFFFF80000000000001FFFFF38
:10069000F80000000000001FFFFFF800000000004D
:1006A000001FFFFFF80000000FFFFFFFFFFFFFFF2D
:1006B000FFE00FFFFFFFFFFFFFFFFFF01FFFFFFF48
:1006C000FFFFFFFFFFF01FFFFFFFFFFFFFFFFFF038
:1006D0001FFFFFFFFFFFFFFFFFF8180000000000F3
:1006E0000000001838000000000000000018300072
:1006F000000000000000001C70000000000000006E
:10070000000C7000000000000000001E7FFFFFFFD3
:10071000FFFFFFFFFFFE7FFFFFFFFFFFFFFFFFFE6B
:100720007FFFFFFFFFFFFFFFFFFE7FFFFFFFFFFFDA
:10073000FFFFFFFC00000F00000001E000000000D0
:1007400003C0000003C00000000000F000001F0014
:1007500000000000003C0000780000000000001FC6
:100760000001F000000000000003C003C000000012
:1007700000000000F01F00000000000000003C7CB2
:1007800000000000000000001FF00000000000005A
:10079000000007E000000000000000000FF0000073
:1007A0000000000000003C7C000000000000000091
:1007B000F81E0000000000000003C00780000000D9
:1007C0000000000F0000F00000000000C03C00002E
:1007D000780700000001C07800001E07000000013B
:1007E000C3E00000078700000001CF00000001F710
:1007F00000000001FE000000007F00000001F80082
:100800000000001F00000001E0000000000F0000D9
:100810000001C00000000003000000018000000093
:100820000003800000018000000000038000000140
:10083000800000000003AA90000180000000000377
:100840008000000000000000000000000000000028
:100850000000000000000000000000000001CF00C8
:10086000000001F000000000FFC000000FF00000D9
:10087000000079E000007E700000000EE0700001D2
:10088000F3F000000007C03C0001FE700000000310
:10089000801C0001F0700000000F007800018070E3
:1008A0000000001F81F8000183F000000073C78C76
:1008B00000018EF0000001C0FF8000019C7000006C
:1008C000078079C0001F8FE000001E01E000007F5C
:1008D000838000003C03C000007380000000F00F24
:1008E0000000007F00007F03C03C000000080007FC
:1008F000FFE7807800000000001F00FE00E000001D
:1009000000000070007803800000000000E000702C
:100910000E000000000001C000381E0000000000B2
:100920000380001C78000000000FFE00000FF8009C
:100930000000007E000000079C00000001E00003B2
:10094000E0061C00000003C0000FFC000E000000C9
:100950000F0000180E000E0000001E00000007002F
:100960000E0000001C00007007000C0000003800A2
:10097000007007001C000000380000380F0038002D
:1009800000003800001FFE00700000003800000763
:10099000F801E000000038007000000F8000000047
:1009A00038003C00003C0000C00018000E00007041
:1009B0000007E0001C0006000070000780000E0029
:1009C00000C0007000060000070000400070000634
:1009D00000000380000000600006000001C000006D
:1009E0000060007E000000F0000000C001FE00007A
:1009F000003C000003C001CE0000001F0000070003
:100A000001FE00000007E0001E000078000000006A
:100A1000FC00F80000000000000003FF00000000E0
:100A200000000000000000000000000000000000C6
:100A300000000000000000000000000000000000B6
:100A40001E00000000000000038011E00000000014
:100A500000003CC01C78000000000001E1C003C79A
:100A600080000000001E1E00001E1E00000003C3C8
:100A7000C0000001E3C000003C3C000000003878EA
:100A80000001E1E0000000000787800F1E00000069
:100A90000000001C3FC3C00000000000007FFE3FBC
:100AA000F000000000001FE1E1FC3F8000000000BA
:100AB000FF0F0F8F03F8000000073803C03C00C78A
:100AC0000000000C601E0003C06180000018603050
:100AD000000040608000001C206000003060C0000A
:100AE000001E1F0000000FC3C0000019800000009E
:100AF000001EC00000187800000000F880000018F8
:100B00000FC000003FC08000001E0000FFC00003B7
:100B10008000001BC0000000001E8000001B7C0045
:100B2000000001FE8000001B1FF00000FFC68000D7
:100B3000001B180C0701C0C68000001B1808060126
:100B400080C68000001B1808060180C68000001BBC
:100B50001808060180C68000001B1808060180C620
:100B60008000001B1808060180C68000001B1808C2
:100B7000060180C68000001B1808060180C68000A0
:100B8000001B1808060180C68000001B180806011B
:100B900080C68000001B1808060180C68000001B6C
:100BA0001808060180C68000001B1808060180C6D0
:100BB0008000001B1808060180C68000001B180872
:100BC000060180C68000000F1808060180C680005C
:100BD00000071808060180CF00000001F808060190
:100BE00080FC000000003F8806018FE0000000004C
:100BF00003FFFFFFFC0000000000000000000000F9
:100C000000000000000000000000000000000000E4
:100C100000000000000000000000000000000000D4
:100C20007FFFFFFFFE000000000000000000007FCB
:100C3000FFFFFFFE000000000000000000007FFF3B
:100C4000FFFFFE000000000000000000007FFFFF2B
:100C5000FFFE000000000000000000007FFFFFFF1B
:100C6000FE000000000000000000007FFFFFFFFE0C
:100C7000000000000001FFFFFFFFFFFFFFFFFFFF7D
:100C8000FFFFFF0003FFFFFFFFFFFFFFFFFFFFFF6F
:100C9000FFFF8003FFFFFFFFFFFFFFFFFFFFFFFFDF
:100CA000FFC007FFFFFFFFFFFFFFFFFFFFFFFFFF8B
:100CB000C007FFFFFFFFFFFFFFFFFFFFFFFFFFC0BA
:100CC00007FFFFFFFFFFFFFFFFFFFFFFFFFFE00F3B
:100CD000FFFFFFFFFFFFFFFFFFFFFFFFFFE00E0033
:100CE000000000000000000000000000F01E0000F6
:100CF0000000000000000000000000F01E000000E6
:100D000000000000000000000000783C000000002F
:100D1000000000000000000000783C00000000001F
:100D20000000000000000000387C0000000000000F
:100D3000000000000000007C7FFFFFFFFFFFFFFFBF
:100D4000FFFFFFFFFFFFFC7FFFFFFFFFFFFFFFFF36
:100D5000FFFFFFFFFFFE7FFFFFFFFFFFFFFFFFFF24
:100D6000FFFFFFFFFE7FFFFFFFFFFFFFFFFFFFFF14
:100D7000FFFFFFFC3FFFFFFFFFFFFFFFFFFFFFFF46
:100D8000FFFFF800000003F000000000001F8000DB
:100D9000000000000000FE00000000007E000000D7
:100DA00000000000001F8000000003F800000000A9
:100DB0000000000007E00000000FE000000000005D
:100DC00000000001F80000003F00000000000000EB
:100DD0000000007F000001FC000000000000000097
:100DE00000000FC00003F000000000000000000041
:100DF0000001F8001F80000000000000000000005B
:100E0000007E00FE00000000000000000000000066
:100E10001F83F80000000000000000000000000731
:100E2000FFC000000000000000000000000001FF03
:100E30000000000000000000000000000001FF00B2
:100E400000000000000000000000000007EFE000CC
:100E500000000000000000000000001F83F80000F8
:100E600000000000000000000000FE007E00000006
:100E7000000000000000000003F0001F80000000E0
:100E8000000000000000000FC00007F0000000009C
:100E90000000000000007F000000FC0000000000D7
:100EA000000000E001F80000003F000F000000001B
:100EB0000001E007E00000000FE00F00000000006C
:100EC00001E03F8000000001F80F00000000000179
:100ED000E0FC00000000007E0F000000000001E3C5
:100EE000F000000000001FCF000000000001FFC064
:100EF000000000000003FF000000000001FE0000F1
:100F00000000000000FF000000000001F8000000E9
:100F1000000000003F000000000001E000000000B1
:100F20000000000F000000000001E00000000000D1
:100F3000000007800000000001C000000000000069
:100F40000007800000000001C00000000000000059
:100F500007800000000003C0000000000000000740
:100F6000924C90000003C0000000000000000792B7
:100F70004CD0000003C0000000000000000780000B
:100F80000000000000000000000000000000000061
:100F90000000000000000000000000000000000051
:100FA0000000000000000000000001C3E00000009D
:100FB00000000380000000000001FFF800000000B6
:100FC000003FC00000000000007F7E000000000322
:100FD000FFC00000000000003E1F000000007FC3B3
:100FE000C000000000007EF807C0000003FC3FC006
:100FF00000000000001FF001F0000003C3FFC0006C
:101000000000000007C0007C000003FFC3C0000018
:101010000000000F8000F8000003FC03C000000087
:1010200000003E0007F0000003C003C00000000005
:1010300000FF801FF0000003807FC000000000035D
:10104000E7E0FC7800000383FFC0000000000F8190
:10105000FFF83800000387C7C0000000003E007F93
:10106000FC000000038787C000000001F8007E1E1E
:10107000000000FF83FF8000000007E001F800008F
:101080000003FF80FC000000000F8007E00000006C
:1010900007878000000000007E001F80000000071E
:1010A000CF800000000000F8007E0000000003FF79
:1010B0000000007FF007E001F800000000003000B1
:1010C000000FFFFF9F8007E000000000000000000D
:1010D0007F801FFE000F800000000000000001F86C
:1010E0000001F8003E000000000000000007C00002
:1010F00007E000F800000000000000000F000007FB
:10110000C003E000000000000000001E000001F02D
:101110000FC000000000000000007C000000F83F4D
:101120000000000000000000FFF80000003CFE008E
:101130000000000000007FFFC00000003FFF000033
:101140000000000007FE00000000001FC780000034
:101150000000001F80000007F0001E078000000054
:1011600000007E0000003FFF000003C00000000000
:1011700001F0000000F807C00003C00000000003F9
:10118000E0000000E001E00003C00000000007C034
:101190000000000000F00003C0000000000F80000D
:1011A0000003C000F0000380000000000F000000FA
:1011B00003C000F0000780000000001E00000003D4
:1011C000E000F0000F00000000001E00000001F031
:1011D00003E0001E00000000001E000000007FFF72
:1011E000C0007C00000000001E000000001FFE0088
:1011F00003F000000000001E000078000000001F47
:10120000C000000000001E00003E00000000FE00C4
:1012100000000000000F00000F80000001F000003F
:1012200000F000000F000003E0000003C000000F0A
:10123000F0000007800000E0000003C000001F80F5
:10124000000003C000001E000003C000001E0000DC
:101250000001E000000F800003C000001E0000003D
:1012600000F0000002000003C000001E00000000AB
:10127000780000000000078000001E000000003E13
:10128000000000000007800003FE000000000F8047
:10129000000000000F00001FFE0000000003E0003F
:1012A0000000003E00003E3E0000000001F800008B
:1012B00000007C00003C3E00000000007F000000B9
:1012C00001F000001FFC00000000000FF000000F04
:1012D000C0000007E0000000000001FF8000FF00E8
:1012E000000000000000000000001FFFFFF80000E9
:1012F000000000000000000000003FFE00000000B1
:1013000000000000000000000000000000000000DD
:1013100000000000000000000000000000000000CD
:1013200000000000000000000000000000000000BD
:1013300000000400000000000000000000000000A9
:10134000000FE00000000000000000000000FC00B2
:101350000C3F000000000000000000001F86000F8E
:1013600083F0000000000000000003F03E0000FCDD
:101370001F80000000000000007E07E000000FC09A
:10138000FC00000000000007E0FC000000007E07F9
:10139000E00000000000FC0FC00000000003F07E31
:1013A000000000001F81F80000000000001F03F093
:1013B000000001F83F0000000000000001F81F805D
:1013C000003F07E000000000000000000FC1F80728
:1013D000E07E000000000000000000007C0FFE0F17
:1013E000C000000000000000000007FFFFC1FFFC7C
:1013F000000000000000000007FF81F81FF01FFC44
:1014000000000000000000FFE03F03F83F003FE065
:10141000000000000007E7FFF07E1F81FFF87C005E
:10142000000000001E1E0007C000FC000E0F0000A0
:10143000000000383800FC000007E00303C0000093
:101440000000703001C0000000600380C000000098
:101450000070300380000000380380C000000000EE
:10146000781C1E000000001F0701E0000000007E45
:1014700007F00000000003FC0FE00000000063C064
:10148000000000000000007CE000000000607E0022
:1014900000000000000FE0C0000000006007FE0038
:1014A0000000000FFE00C00000000070001FFFFFE2
:1014B000FFFFFF0001C0000000007E0000007FFE73
:1014C0000000000FC00000000067E0000000000006
:1014D0000000FCC000000000677F800000000000EA
:1014E0001FFCC0000000006707FFC00000007FFE77
:1014F0000CC000000000670603FFFFFFFFFC0E0C9E
:10150000C0000000006706003000E001C00E0CC003
:10151000000000006706003000E001C00E0CC000B3
:101520000000006706003000E001C00E0CC00000A3
:1015300000006706003000E001C00E0CC000000093
:10154000006706003000E001C00E0CC00000000083
:101550006706003000E001C00E0CC000000000670C
:1015600006003000E001C00E0CC00000000067065D
:10157000003000E001C00E0CC00000000067060053
:101580003000E001C00E0CC0000000006706003013
:1015900000E001C00E0CC000000000670600300033
:1015A000E001C00E0CC0000000006706003000E043
:1015B00001C00E0CC0000000006706003000E00112
:1015C000C00E0CC0000000006706003000E001C043
:1015D0000E0CC0000000006706003000E001C00EE5
:1015E0000CC0000000006706003000E001C00E0CD7
:1015F000C0000000006706003000E001C00E0CC013
:10160000000000006706003000E001C00E0CC000C2
:101610000000007706003000E001C00E0CC00000A2
:1016200000003F06003000E001C00E0F8000000007
:10163000000F86003000E001C00E3F0000000000F7
:1016400001FE003000E001C00FF8000000000000C3
:101650001FF83000E001C3FF0000000000000000A0
:101660007FFFFEE7FFFFC000000000000000000059
:1016700007FFFFFF00000000000000000000000066
:10168000000000000000000000000000000000005A
:10169000000000000000000000000000000000004A
:1016A000000000000000000000000000000000003A
:1016B000000000000000000000000000000000002A
:1016C00000000007E0000000000000000000000033
:1016D00000001FF0000000000000000000000000FB
:1016E000003C70000000000000000000000000004E
:1016F000387000000000000000000000000000380A
:10170000000000000000000000030000000078005E
:10171000000000000000000007000000007800004A
:10172000000000000000000700000001FF000000B2
:101730000000000000000F00000203F000000000A5
:1017400000000000000F00003FC0F000000000009B
:10175000000000000E0000E1E0F000004380000007
:101760000000000E0001E0E0E00001FFF0000000DA
:101770000007FE0001C0E1E00001F8F8000000C031
:101780001E7C0001C1E1E00003E07800001FF81CAE
:101790003C0001C7C3C00003C07802383C3C3C3C5D
:1017A0000003C7CFC00003C0F01FF83838383C1C16
:1017B00003C3FFC000038FE0387838383878380327
:1017C000C383C000079FE07878787838783801FFC5
:1017D000038000079FF07070787078787000780749
:1017E00080000700787070707078FFE0000007805C
:1017F00000070078F0F0F0F0FFDF800000078000C5
:101800000F0078F0F0F07F9F000000000700000F4D
:10181000FFF8F0F1F03E000000001C0F00000FC1C7
:10182000FFF1FFE0000000001FFC0F00000FC0FFF1
:101830007F3C00000000E078F80E00001FC1E01CB3
:1018400000000001C0E0F0780000001FFF800000F1
:10185000007E03C1E0E0780000001C380000030FA8
:10186000CF0381E0E07800000000000000070F07D0
:101870000381C1E07000000000000000070E0707B0
:1018800081C1C070000000000000000F1E0F0703A0
:10189000C1C0F0200000000000000E1C0F07FFC3B5
:1018A000C0E0600000000000000E3C0E7FC383C05B
:1018B000E0600000000000000E3C0E0F038381E09A
:1018C000C00000000000001E381E0E078781E1C026
:1018D0000000000000001C381C1E0787C3E38000C6
:1018E00000000000001C781C1E0787FE7C00000022
:1018F000000000003C703C3C03FCF80000000000CD
:1019000000000038701C7C00E000000000000000B7
:10191000000038F01FFC0000000000000000000084
:101920000038F0000000000000000000000000008F
:1019300070600000000000000000000000000000D7
:101940000000000000000000000000000000000097
:101950000000000000000000000000000000000087
:10196000000000000000000011241FBECFEFD0E1F6
:10197000DEBFCDBF14E0A0E0B1E0E0E7FCE200E0B4
:101980000BBF02C007900D92AA35B107D9F728E026
:10199000AAE5B4E001C01D92A03CB207E1F7DED495
:1019A0000C9436160C9400001BBA8FEF8ABB88BBD0
:1019B00087BB15BA90EF94BB90E892BB91BB13B86C
:1019C00082B9109262001092610008958FE089BF81
:1019D0008AEA80936A008FB780688FBF0895F89471
:1019E000E3DFCFD6F3DF789408951F920F920FB6FE
:1019F0000F9211240BB60F920F932F933F934F9397
:101A00005F936F937F938F939F93AF93BF93EF9366
:101A1000FF9381E090E090936B0480936A04F7D584
:101A20008091600490916104892BD1F080D500E50C
:101A300020E348E160E18CE890E0CCD780915E043F
:101A400090915F04FC01EE0FFF1FE459FB4F21E072
:101A500030E031832083019690935F0480935E048D
:101A600029E989E591E0215080409040E1F70000AC
:101A7000FF91EF91BF91AF919F918F917F916F9166
:101A80005F914F913F912F910F910F900BBE0F904F
:101A90000FBE0F901F9018951F920F920FB60F92C6
:101AA00011240BB60F920F932F933F934F935F9395
:101AB0006F937F938F939F93AF93BF93EF93FF9316
:101AC00081E090E09093690480936804A0D58091B0
:101AD000600490916104892BD1F014D500E520E3D6
:101AE00048E160E18CE29AE075D780915E049091C4
:101AF0005F04FC01EE0FFF1FE459FB4F21E030E0D3
:101B000031832083019690935F0480935E0429E9DA
:101B100089E591E0215080409040E1F70000FF917D
:101B2000EF91BF91AF919F918F917F916F915F9155
:101B30004F913F912F910F910F900BBE0F900FBEC1
:101B40000F901F9018951F920F920FB60F921124AD
:101B50000BB60F920F932F933F934F935F936F9317
:101B60007F938F939F93AF93BF93EF93FF9381E006
:101B700090E0909367048093660449D58091600457
:101B800090916104892BD1F0A8D400E520E348E1CD
:101B900060E18CE498E01ED780915E0490915F0430
:101BA000FC01EE0FFF1FE459FB4F22E030E03183D0
:101BB0002083019690935F0480935E0429E989E570
:101BC00091E0215080409040E1F70000FF91EF91BB
:101BD000BF91AF919F918F917F916F915F914F9145
:101BE0003F912F910F910F900BBE0F900FBE0F9052
:101BF0001F9018951F920F920FB60F9211240BB6DB
:101C00000F920F932F933F934F935F936F937F9315
:101C10008F939F93AF93BF93EF93FF9381E090E0F7
:101C20009093650480936404F2D480916004909151
:101C30006104892BD1F028D400E520E348E160E17C
:101C40008CE696E0C7D680915E0490915F04FC011B
:101C5000EE0FFF1FE459FB4F23E030E03183208378
:101C6000019690935F0480935E0429E989E591E0F1
:101C7000215080409040E1F70000FF91EF91BF912B
:101C8000AF919F918F917F916F915F914F913F9114
:101C90002F910F910F900BBE0F900FBE0F901F90C2
:101CA0001895CF93DF93EC01CB014AE068E873E02D
:101CB0004DD7CE01DF91CF9108954AD545EE52E040
:101CC00060E081E0BED54AEF52E060E083E0B9D544
:101CD0004AE053E060E085E0B4D54CE153E060E0D9
:101CE00087E0AFD54DD480916A0490916B04019741
:101CF000C9F710926B0410926A0408950F93CF9362
:101D0000DF93F894809162049091630414D781E08A
:101D100090E0909307018093060183E090E0909318
:101D200009018093080114D580915C0490915D04B1
:101D3000892B29F440E353E064E084E082D580916C
:101D40005C0490915D04029729F44CE353E064E055
:101D500084E077D580915C0490915D04049729F428
:101D600046E453E064E084E06CD52FEF8FEF99E513
:101D7000215080409040E1F700C00000E9D440E5E8
:101D800053E064E084E05DD52FEF8FEF99E52150BB
:101D900080409040E1F700C00000EAC1C901880F0F
:101DA000991FFC01EC56FB4F45E050E05183408306
:101DB000FC01E459FB4F46E050E0518340832F5F24
:101DC0003F4F02C020E030E0243131053CF3C0D465
:101DD0004DE553E066E084E034D561E08091060192
:101DE0006ED52FEF8FEF99E5215080409040E1F7BD
:101DF00000C00000C0E0D0E080C0AAD42FEF8FE781
:101E000096E1215080409040E1F700C000008091B1
:101E10005C0490915D04049729F08AD663E070E039
:101E20002DD609C085D683709078992324F4019724
:101E30008C6F9F6F019681309105E1F01CF4892B26
:101E400039F04CC08230910539F10397B9F146C0A1
:101E500059D308E72CE340E060E084E193E1BAD590
:101E6000FE01EE0FFF1FEC56FB4F81E090E09183E7
:101E7000808339C032D308E72CE340E060E080E99A
:101E80009FE0A8D5FE01EE0FFF1FEC56FB4F82E04E
:101E900090E09183808327C0F7D208E72CE340E0ED
:101EA00060E08CE09CE096D5FE01EE0FFF1FEC5643
:101EB000FB4F83E090E09183808315C038D300E826
:101EC0002CE340E060E08CE692E084D5FE01EE0F6A
:101ED000FF1FEC56FB4F1182108205C044E653E011
:101EE00066E084E0AED42FEF8FEF93E22150804084
:101EF0009040E1F700C0000021968091060190918A
:101F000007010396C817D9070CF477CF21D44AE606
:101F100053E064E084E095D42FEF8FEF9CE22150F2
:101F200080409040E1F700C0000010925F041092E2
:101F30005E040ED481E090E090936104809360048D
:101F400049E753E06AE084E07CD478942FEF8FEF88
:101F50009CE2215080409040E1F700C00000F8D39F
:101F6000CAE0D0E028C04CE753E061E080E069D4EB
:101F700061E080910801A3D4BE0181E893E091DE85
:101F8000AC016AE080E05DD421972FEF8FEF9CE2F7
:101F9000215080409040E1F700C00000D9D38091EB
:101FA000060190910701039620915E0430915F0431
:101FB000281739071CF41C161D06ACF2F894609122
:101FC0000601709107016D5F7F4F80915E049091D3
:101FD0005F04861797071CF0C1E0D0E002C0C0E0A4
:101FE000D0E020E030E014C0C901880F991FFC0147
:101FF000E459FB4F40815181FC01EC56FB4F80813D
:1020000091814817590711F0C0E0D0E02F5F3F4F92
:10201000261737074CF32FEF8FE392E021508040D3
:102020009040E1F700C0000093D349E853E066E038
:1020300084E007D42FEF8FE392E02150804090405E
:10204000E1F700C00000209709F52FEF8FE796E138
:10205000215080409040E1F700C000004FE853E07D
:1020600066E084E0EED363D280910801909109018B
:10207000019790930901809308012FEF8FE796E174
:10208000215080409040E1F700C000002197C1F44A
:102090002FEF8FE796E1215080409040E1F700C09C
:1020A000000046E953E066E084E0CBD3EDD12FEFAA
:1020B0008FE796E1215080409040E1F700C000009A
:1020C0002FEF8FEF9CE2215080409040E1F700C05D
:1020D00000008091080190910901181619065CF51D
:1020E000409104015091050120915C0430915D0400
:1020F000240F351F409106015091070142175307E5
:10210000D4F026D34EE953E066E084E09AD3BCD104
:1021100080915A0490915B04019690935B048093A4
:102120005A042FEF8FEF99E5215080409040E1F75E
:1021300000C000002FC0181619068CF009D349EA18
:1021400053E066E084E07DD3F2D12FEF8FEF99E585
:10215000215080409040E1F700C000001BC08091FA
:102160000601909107010196909307018093060163
:10217000209104013091050180915C0490915D04EF
:10218000820F931F20910601309107018217930758
:102190000CF018CEDF91CF910F910895D9D245EE72
:1021A00052E060E081E04DD343EB53E060E083E038
:1021B00048D345EC53E060E085E043D380915A0476
:1021C00090915B04181619062CF445ED53E060E07D
:1021D00087E037D3D5D180916A0490916B04019741
:1021E00029F410926B0410926A0408958091680497
:1021F00090916904019749F410926904109268045F
:1022000010925D0410925C04089580916604909190
:102210006704019759F4109267041092660482E0F3
:1022200090E090935D0480935C0408958091640431
:1022300090916504019759F410926504109264041A
:1022400084E090E090935D0480935C0408952FEF08
:102250008FE796E1215080409040E1F700C00000F8
:10226000B9CF76D218D3BBDB45EE53E060E081E016
:10227000E8D24BEF53E060E083E0E3D240E154E08A
:1022800060E085E0DED246E254E060E087E0D9D24B
:1022900077D180916A0490916B04019731F180911C
:1022A000680490916904019701F18091660490910E
:1022B00067040197D1F080916404909165040197BF
:1022C00051F446D2E8D24BE354E064E084E0B9D262
:1022D00080E090E0CBD42FEF8FE796E12150804053
:1022E0009040E1F700C00000D3CF32D280916A0461
:1022F00090916B040197D1F410926B0410926A04D0
:10230000FDDC10926B0410926A0410926904109222
:10231000680410926704109266041092650410928B
:10232000640410926104109260040895809168041E
:1023300090916904019731F4109269041092680435
:10234000BCCC08958091660490916704019729F4AC
:10235000109267041092660421CF089540DBF8D1F3
:102360009AD208E720E340E060E088E996E132D3C2
:1023700046E454E060E087E064D202D180916A04D0
:1023800090916B040197C1F0D3D364E670E076D3EB
:102390002091620430916304820F931F9093630431
:1023A000809362042FEF8FE392E0215080409040B1
:1023B000E1F700C00000E1CF10926B0410926A04B4
:1023C000C7D1DFD120E030E013C0C901880F991FC9
:1023D000FC01EC56FB4F45E050E051834083FC018B
:1023E000E459FB4F46E050E0518340832F5F3F4F5D
:1023F0002431310554F380916204909163049BD39E
:1024000030DF2FEF8FE796E1215080409040E1F7D9
:1024100000C00000F5CF20E030E005C045E04A955F
:10242000F1F72F5F3F4F28173907C4F30895EF9254
:10243000FF920F931F93CF93DF938B0128EE33E02E
:10244000AC01429FC001439F900D529F900D1124FB
:1024500001D30DC0C5E6D0E0888180618883C801C2
:10246000DADF88818F7E8883C801D5DFB7017B01E1
:1024700051E0E51AF108672B69F7DF91CF911F91C1
:102480000F91FF90EF90089565E670E083E290E091
:10249000CEDF6AE570E08EE190E0C9DF60E570E0D4
:1024A00083E290E0C4DF6CE470E08EE190E0BFDF97
:1024B00064E470E083E290E0BADF6DE370E08EE107
:1024C00090E0B5DF66E370E083E290E0B0DF63E3C5
:1024D00070E08EE190E0ABCF089568EC70E083E2AD
:1024E00090E0A5DF6FE970E083E290E0A0DF66E8AE
:1024F00070E083E290E09BDF65E670E083E290E0CD
:1025000096CF089560E570E083E290E090DF60E5AB
:1025100070E083E290E08BDF60E570E083E290E0C2
:1025200086DF60E570E083E290E081CF089563E3A9
:1025300070E08EE190E07BDF66E370E083E290E0A4
:1025400076DF6DE370E08EE190E071DF64E470E0CF
:1025500083E290E06CDF6CE470E08EE190E067DF96
:1025600060E570E083E290E062DF6AE570E08EE1B2
:1025700090E05DDF65E670E083E290E058CF08957B
:102580006FE970E081E490E052DF66E370E081E49F
:1025900090E04DDF68EC70E081E490E048DF62EBB2
:1025A00070E081E490E043DF6FE970E081E490E067
:1025B0003EDF62EB70E081E490E039DF68EC70E0D0
:1025C00081E490E034DF66E370E08EE190E02FDF9D
:1025D0006DE370E081E490E02ADF6DE370E081E478
:1025E00090E025DF68EC70E081E490E020DF6FE9A7
:1025F00070E081E490E01BDF62EB70E081E490E04A
:1026000016DF68EC70E081E490E011CF089564E497
:1026100070E083E290E00BDF65E670E083E290E03B
:1026200006CF089593B1906293B991E39A95F1F72B
:10263000000093B19F7E93B993B19F7B93B993B1FF
:10264000906893B98BBB81E38A95F1F7000083B161
:102650008F7D83B9089593B1906293B991E39A9570
:10266000F1F7000093B19F7E93B993B1906493B951
:1026700093B19F7793B98BBB81E38A95F1F7000003
:1026800083B18F7D83B9089593B1906293B991E33B
:102690009A95F1F7000093B19F7E93B993B190643E
:1026A00093B993B1906893B98BBB81E38A95F1F7A5
:1026B000000083B18F7D83B9089593B1906293B97F
:1026C00091E39A95F1F7000093B1906193B993B1BA
:1026D0009F7B93B993B1906893B98BBB81E38A9543
:1026E000F1F7000083B18F7D83B9089593B19062B3
:1026F00093B991E39A95F1F7000093B1906193B982
:1027000093B1906493B993B19F7793B98BBB81E3F5
:102710008A95F1F7000083B18F7D83B9089593B155
:10272000906293B991E39A95F1F7000093B19061AB
:1027300093B993B1906493B993B1906893B98BBBFB
:1027400081E38A95F1F7000083B18F7D83B9089505
:102750001F93CF93DF9318EBD0E00DC0812F94DF50
:1027600080E492DFC0E003C080E0D9DFCF5FC034F7
:10277000D8F31F5FDF5FD83088F3DF91CF911F91CF
:1027800008958FE381DF80EC7FDF88EB7DDF80E4DD
:102790007BCF08958093BC046093BF08885474DF96
:1027A0008091BF088A3048F4982F990F890F982F8D
:1027B000990F84E4890F36CF089590E00A97982FF7
:1027C000990F890F982F990F80E4890F44CF0895AE
:1027D000CF93DF93D82FC0E026C08091BF088A3006
:1027E00088F48D2F90E08097FC01EE0FFF1FEE0F15
:1027F000FF1FE80FF91FE65FFE4FEC0FF11D808110
:102800005CDF10C08D2F90E08097FC01EE0FFF1F62
:10281000EE0FFF1FE80FF91FE65FFE4FEC0FF11DF3
:10282000808164DFCF5FC530C0F28091BF088A30FD
:1028300018F480E042DF02C080E058DFDF91CF91E2
:102840000895CF93DF93EA018093BC046093BF089F
:10285000A1DF0DC08091BF088A3011F480E4FBDE57
:102860008991B6DF8091BF088F5F8093BF08888110
:102870008111F0CFDF91CF910895CF93C62F885467
:1028800003DFC03420F480E48C0FCCDE02C08C2F38
:10289000E2DECF91089590E00FC020E8929FF00112
:1028A0001124E154FB4FE80FF11D10828F5F01C02E
:1028B00080E0882394F79F5F9830D0F308959DECD3
:1028C000899F912D1124969596959695990F292F6C
:1028D000220F220F920F891B982F31F4611104C02F
:1028E00080E276DF80E0089580E3890F71DF81E088
:1028F000089521E030E0062E02C0220F331F0A9413
:10290000E2F790E08223932302C0959587956A951C
:10291000E2F70895CF93DF93803408F058C0662320
:102920000CF455C0D82FD695D695D695877071F0F2
:10293000813071F0823071F0833071F0843071F049
:10294000853071F0863071F480E40DC081E00BC0F9
:1029500082E009C084E007C088E005C080E103C0D0
:1029600080E201C080E8452B69F4809590E8D99F0A
:10297000F0011124E154FB4FE60FF11D90818923F2
:1029800080830BC090E8D99FF0011124E154FB4FE4
:10299000E60FF11D9081892B8083C62F8D2F6DDF6F
:1029A000C03458F480E8D89FF0011124E154FB4F63
:1029B000EC0FF11D808181DE0AC090E8D99FF00103
:1029C0001124E154FB4FEC0FF11D80818FDEDF916C
:1029D000CF9108959F92AF92BF92CF92DF92EF92E4
:1029E000FF920F931F93CF93DF937C01A62EB42EFB
:1029F000922EC0E0D0E0C12C1FC0209729F4C7015F
:102A00000196F701D4907C0167E070E06C1B7D0BB0
:102A10008D2D6FDFAC01612F6B0D8C2D8A0D7ADF50
:102A20002196C830D10511F4C0E0D0E01F5F01C08D
:102A300010E0101710F3C394C914D0F3DF91CF91B5
:102A40001F910F91FF90EF90DF90CF90BF90AF90CC
:102A50009F900895AA1BBB1B51E107C0AA1FBB1F73
:102A6000A617B70710F0A61BB70B881F991F5A951A
:102A7000A9F780959095BC01CD01089597FB072E8D
:102A800016F4009406D077FD08D0E4DF07FC05D0EB
:102A90003EF4909581959F4F0895709561957F4F75
:102AA00008958F929F92AF92BF92CF92DF92EF9252
:102AB000FF92CF93DF93EC01688179818A819B81BA
:102AC000611571058105910521F464E279ED8BE5CD
:102AD00097E02DE133EF41E050E06BD049015A011E
:102AE0009B01AC01A7EAB1E480D06B017C01ACEEA4
:102AF000B4EFA501940185D0DC01CB018C0D9D1DA7
:102B0000AE1DBF1DB7FF03C00197A109B048888360
:102B10009983AA83BB839F77DF91CF91FF90EF903A
:102B2000DF90CF90BF90AF909F908F900895B9CFD6
:102B300080E091E0B6CFA0E0B0E0809300019093F8
:102B40000101A0930201B09303010895BB274A300D
:102B500031F4992322F4BDE2909581959F4F01C0F5
:102B6000BB27FB015527AA27880F991FAA1FA41767
:102B700010F0A41B83955051B9F7A05DAA3308F05B
:102B8000A95DA193009779F7B111B1931192CB018F
:102B900000C0DC01FC01672F71917723E1F73297C8
:102BA00004C07C916D9370836291AE17BF07C8F328
:102BB0000895052E97FB16F400940FD057FD05D00D
:102BC00024D007FC02D046F408C0509540953095BB
:102BD00021953F4F4F4F5F4F089590958095709589
:102BE00061957F4F8F4F9F4F089531D0A59F900DD6
:102BF000B49F900DA49F800D911D11240895B7FFDF
:102C0000F4CFF3DF821B930B0895A1E21A2EAA1BC7
:102C1000BB1BFD010DC0AA1FBB1FEE1FFF1FA2178C
:102C2000B307E407F50720F0A21BB30BE40BF50B89
:102C3000661F771F881F991F1A9469F76095709512
:102C4000809590959B01AC01BD01CF010895A29F95
:102C5000B001B39FC001A39F700D811D1124911D70
:102C6000B29F700D811D1124911D0895F894FFCF1E
:102C7000010000000500010003000000000000004A
:102C8000004F00000007000700147F147F14242A5F
:102C90007F2A122313086462364955225000050327
:102CA0000000001C2241000041221C0014083E08C4
:102CB0001408083E080800503000000808080808FA
:102CC000006060000020100804023E5149453E00AB
:102CD000427F400042615149462141454B31181421
:102CE000127F1027454545393C4A49493001710951
:102CF00005033649494936064949291E003636003A
:102D00000000563600000814224100141414141454
:102D100000412214080201510906324979413E7EE0
:102D20001111117E7F494949363E414141227F417F
:102D300041221C7F494949417F090909013E414916
:102D4000497A7F0808087F00417F41002040413FC9
:102D5000017F081422417F404040407F020C027FE7
:102D60007F0408107F3E4141413E7F090909063E2C
:102D70004151215E7F0919294626494949320101FD
:102D80007F01013F4040403F1F2040201F3F40380F
:102D9000403F6314081463070870080761514945F0
:102DA00043007F41410002040810200041417F00A0
:102DB000040201020440404040400001020400209F
:102DC000545454787F484444383844444420384468
:102DD00044487F3854545418087E0901020C52525A
:102DE000523E7F0804047800047D00002040443DEA
:102DF000007F1028440000417F40007C0418047CC0
:102E00007C0804047838444444387C1414140808BA
:102E10001414187C7C080404084854545420043FBB
:102E20004440203C4040207C1C2040201C3C403042
:102E3000403C44281028440C5050503C4464544CAE
:102E400044000836410000007700000041360800C9
:102E50000804081008425554544F4E2030203A20A0
:102E60004D41494E204D454E5500425554544F4E0C
:102E70002031203A204452554D00425554544F4E73
:102E80002032203A2047554954415200425554546B
:102E90004F4E2033203A204B4559424F4152440077
:102EA0004E4F524D414C204D4F44450048415244F5
:102EB000204D4F44450048454C4C204D4F44450063
:102EC0004D5553494320535441525421004C4556CB
:102ED000454C20004552524F520041524520594F17
:102EE000552052454144593F00474F004C203A205D
:102EF0000054494D45203A2000444542554700467C
:102F000041494C45440053554343455353004741C1
:102F10004D4520434C4541520047414D45204F56B9
:102F2000455200425554544F4E2031203A204E4FC6
:102F3000524D414C00425554544F4E2032203A20BD
:102F40004841524400425554544F4E2033203A20B9
:102F500048454C4C00425554544F4E2030203A20A6
:102F600047414D4520535441525400425554544F0B
:102F70004E2031203A20484F57544F504C41590071
:102F8000425554544F4E2032203A20444946464937
:102F900043554C545900425554544F4E2033203A17
:102FA0002047414D452045584954005448414E4B17
:102FB00020594F5521003C20505245535320425533
:0A2FC00054544F4E2030203E000014
:00000001FF
